:020000021000EC
:10F000000C9490F80C94AFF80C94AFF80C94AFF803
:10F010000C94AFF80C94AFF80C94AFF80C94AFF8D4
:10F020000C94AFF80C94AFF80C94AFF80C94AFF8C4
:10F030000C94AFF80C94AFF80C94AFF80C94AFF8B4
:10F040000C94AFF80C94AFF80C94AFF80C94AFF8A4
:10F050000C94AFF80C94AFF80C94AFF80C94AFF894
:10F060000C94AFF80C94AFF80C94AFF80C94AFF884
:10F070000C94AFF80C94AFF80C94AFF80C94AFF874
:10F080000C94AFF80C94AFF80C94AFF80C94AFF864
:10F090000C94AFF80C94AFF80C94AFF80C94AFF854
:10F0A0000C94AFF80C94AFF80C94AFF80C94AFF844
:10F0B0000C94AFF80C94AFF80C94AFF80C94AFF834
:10F0C0000C94AFF80C94AFF80C94AFF80C94AFF824
:10F0D0000C94AFF80C94AFF80C94AFF80C94AFF814
:10F0E0000C94AFF80C94AFF80C94AFF80C94AFF804
:10F0F0000C94AFF80C94AFF80C94AFF80C94AFF8F4
:10F100000C94AFF80C94AFF80C94AFF80C94AFF8E3
:10F110000C94AFF80C94AFF80C94AFF80C94AFF8D3
:10F1200011241FBECFEFD1E4DEBFCDBF12E0A0E0BF
:10F13000B2E0EEE9F8EF01E00BBF02C007900D92DC
:10F14000A230B107D9F723E0A2E0B2E001C01D92DE
:10F15000AD30B207E1F70E94C2F90C944DFC0C945B
:10F1600000F890910502913019F0923041F0089525
:10F170009091C00095FFFCCF8093C60008959091B8
:10F18000C80095FFFCCF8093CE000895CF93982FB1
:10F190009595959595959595905D8F708A304CF4E1
:10F1A000C0E3C80F892F0E94B1F88C2FCF910C9427
:10F1B000B1F8C7E5C80F892F0E94B1F88C2FCF9105
:10F1C0000C94B1F8CF92DF92EF92FF9280910502FA
:10F1D000813061F1823031F080E0FF90EF90DF907C
:10F1E000CF900895C12CD12C76018091C80087FD65
:10F1F00016C08FEFC81AD80AE80AF80A81E4C816C0
:10F2000082E4D8068FE0E806F10478F3E091020288
:10F21000F091030209958091C80087FFEACF8091A1
:10F22000CE00FF90EF90DF90CF900895C12CD12CAD
:10F2300076018091C00087FD16C08FEFC81AD80AEA
:10F24000E80AF80A81E4C81682E4D8068FE0E806E6
:10F25000F10478F3E0910202F091030209958091A4
:10F26000C00087FFEACF8091C600FF90EF90DF904B
:10F27000CF900895CF930E94E2F8C82F0E94B1F872
:10F28000C1364CF4C03324F080ED8C0FCF9108953B
:10F290008C2FCF91089589EA8C0FCF910895CF9349
:10F2A0000E943AF9C82F0E943AF990E1C99F800D57
:10F2B0001124CF91089520910502815060F02130F2
:10F2C00059F02230D1F79091C80097FFFCCF909170
:10F2D000CE008150A0F708959091C00097FFFCCF19
:10F2E0009091C600EACFCF93C82F0E94E2F88032F7
:10F2F00079F0809104028F5F80930402853011F0D1
:10F30000CF910895E0910202F0910302CF91099408
:10F3100084E10E94B1F88C2F0E94B1F880E1CF9176
:10F320000C94B1F80E94E2F8803269F080910402F6
:10F330008F5F80930402853009F00895E091020206
:10F34000F0910302099484E10E94B1F880E10C94E9
:10F35000B1F815C0A09A2FEF31EE94E02150304063
:10F360009040E1F700C00000A0982FEF31EE94E04C
:10F37000215030409040E1F700C0000081508111E1
:10F38000E9CF0895000081E080930502E0E0F0E01D
:10F39000E49120E12093C4001092C5001092C000B7
:10F3A00096E09093C20088E18093C10030910502FD
:10F3B000323051F42093CC001092CD001092C8004E
:10F3C0009093CA008093C9006898709A989A909117
:10F3D000050284E0890F9B3F11F419C0892FA09A80
:10F3E0002FEF31EE94E0215030409040E1F700C023
:10F3F0000000A098EFEFF1EE24E0E150F040204053
:10F40000E1F700C000009FEF980F8111E7CF0E9445
:10F41000E2F88033B1F18133B9F1803409F454C09A
:10F42000813409F45AC0823409F469C0853409F47E
:10F430006CC0982F9D7F903521F1813511F1853574
:10F4400009F469C0863509F471C0843609F477C0BF
:10F45000843709F4E1C0853709F43CC1863709F4E3
:10F460004AC0809104028F5F80930402853079F650
:10F47000E0910202F091030209950E94E2F88033C4
:10F4800051F60E9492F9C3CF0E94E2F8803249F708
:10F4900084E10E94B1F881E40E94B1F886E50E94FF
:10F4A000B1F882E50E94B1F880E20E94B1F889E4E7
:10F4B0000E94B1F883E50E94B1F880E50E94B1F89E
:10F4C00080E10E94B1F8A3CF0E94E2F88638C8F22A
:10F4D0000E94E2F80E9492F99ACF0E94E2F88038E6
:10F4E00009F421C1813809F41AC1823809F41FC115
:10F4F000883909F404C180E00E9473F988CF84E15F
:10F500000E945BF90E9492F982CF85E00E945BF92C
:10F510000E9492F97CCF0E94E2F8809306020E943A
:10F52000E2F8809307020E9492F971CF0E94E2F8FC
:10F53000803309F4E8C083E00E945BF9DCCF0E94CD
:10F54000E2F8809309030E94E2F880930803809117
:10F550000C038E7F80930C030E94E2F8853409F43B
:10F56000FCC08091080390910903892BA1F068E009
:10F57000E62E62E0F62E00E010E00E94E2F8F701CD
:10F5800081937F010F5F1F4F8091080390910903C2
:10F590000817190790F30E94E2F8803209F061CF52
:10F5A00080910C0380FFE9C0209106023091070290
:10F5B000220F331F30930702209306028091080325
:10F5C00090910903892B09F148E0E42E42E0F42EE2
:10F5D000C90100E010E001C0C901F70161917F019C
:10F5E0000E943FFC20910602309107022F5F3F4F9F
:10F5F00030930702209306020F5F1F4F809108038C
:10F60000909109030817190738F384E10E94B1F8B3
:10F6100080E10E94B1F8FBCE0E94E2F880930903DA
:10F620000E94E2F8809308038091060290910702FD
:10F6300020910C0397FD9DC02D7F20930C03880F14
:10F64000991F90930702809306020E94E2F8853486
:10F6500009F489C080910C038E7F80930C030E9473
:10F66000E2F8803209F0D3CE84E10E94B1F88091B3
:10F67000080390910903892B09F43DC000E010E0D4
:10F68000809106029091070216C0FC0184910E94AD
:10F69000B1F88091060290910702019690930702BB
:10F6A000809306020F5F1F4F2091080330910903DA
:10F6B0000217130700F520910C0320FD3CC021FF29
:10F6C000E4CFA0E0B0E01196ABBFFC0187910E94AF
:10F6D000B1F8DFCF0E94E2F8803209F0C2CE84E1B7
:10F6E0000E94B1F88EE10E94B1F887EA0E94B1F859
:10F6F00081E00E94B1F880E10E94B1F888CE83E0F9
:10F700000E9473F984CE0E94E2F80E94E2F8182F5A
:10F710000E94E2F8112309F4A2C01130D1F081E077
:10F720000E9473F974CE82E00E9473F970CE80E17A
:10F730000E9473F96CCE0E9437FC0E94B1F8809150
:10F7400006029091070201969093070280930602A9
:10F75000A9CF87EA0E9473F95ACE80910C03816089
:10F7600080930C03FECE80910C03816080930C0388
:10F7700076CF226020930C0362CF8091070287FD31
:10F7800072C010920B0380E08BBF809106029091B3
:10F790000702880F991F90930702809306028091B9
:10F7A000080380FF09C08091080390910903019626
:10F7B0009093090380930803F894F999FECF1127D9
:10F7C000E0910602F0910702C8E0D2E080910803C0
:10F7D00090910903103091F40091570001700130AD
:10F7E000D9F303E000935700E895009157000170AA
:10F7F0000130D9F301E100935700E8950990199081
:10F800000091570001700130D9F301E000935700D7
:10F81000E8951395103898F0112700915700017062
:10F820000130D9F305E000935700E89500915700A7
:10F8300001700130D9F301E100935700E895329649
:10F84000029709F0C7CF103011F00296E5CF1124CE
:10F8500084E10E94B1F880E10E94B1F8D8CD8EE138
:10F860000E9473F9D4CD81E080930B038DCFF99979
:10F87000FECF92BD81BDF89A992780B50895262FB5
:10F88000F999FECF1FBA92BD81BD20BD0FB6F89485
:0EF89000FA9AF99A0FBE01960895F894FFCFE8
:02F89E008000E8
:040000031000F000F9
:00000001FF
